{
  "_format": "hh-sol-artifact-1",
  "contractName": "TradingAlgoAVS",
  "sourceName": "contracts/TradingAlgoAVS.sol",
  "abi": [
    {
      "anonymous": false,
      "inputs": [
        {
          "indexed": true,
          "internalType": "uint256",
          "name": "strategyId",
          "type": "uint256"
        },
        {
          "indexed": true,
          "internalType": "address",
          "name": "provider",
          "type": "address"
        },
        {
          "indexed": false,
          "internalType": "uint256",
          "name": "subscriptionFee",
          "type": "uint256"
        },
        {
          "indexed": false,
          "internalType": "string",
          "name": "subscriptionPeriod",
          "type": "string"
        },
        {
          "indexed": false,
          "internalType": "string",
          "name": "strategyUid",
          "type": "string"
        },
        {
          "indexed": false,
          "internalType": "uint256",
          "name": "roi",
          "type": "uint256"
        },
        {
          "indexed": false,
          "internalType": "uint256",
          "name": "profitability",
          "type": "uint256"
        },
        {
          "indexed": false,
          "internalType": "uint256",
          "name": "risk",
          "type": "uint256"
        }
      ],
      "name": "StrategyCreated",
      "type": "event"
    },
    {
      "anonymous": false,
      "inputs": [
        {
          "indexed": true,
          "internalType": "uint256",
          "name": "strategyId",
          "type": "uint256"
        },
        {
          "indexed": true,
          "internalType": "address",
          "name": "subscriber",
          "type": "address"
        },
        {
          "indexed": false,
          "internalType": "uint256",
          "name": "subscriptionFee",
          "type": "uint256"
        },
        {
          "indexed": false,
          "internalType": "string",
          "name": "subscriptionPeriod",
          "type": "string"
        },
        {
          "indexed": false,
          "internalType": "uint256",
          "name": "startTime",
          "type": "uint256"
        },
        {
          "indexed": false,
          "internalType": "uint256",
          "name": "endTime",
          "type": "uint256"
        }
      ],
      "name": "StrategySubscribed",
      "type": "event"
    },
    {
      "anonymous": false,
      "inputs": [
        {
          "indexed": true,
          "internalType": "uint256",
          "name": "strategyId",
          "type": "uint256"
        },
        {
          "indexed": true,
          "internalType": "address",
          "name": "subscriber",
          "type": "address"
        }
      ],
      "name": "StrategyUnsubscribed",
      "type": "event"
    },
    {
      "inputs": [
        {
          "internalType": "uint256",
          "name": "",
          "type": "uint256"
        }
      ],
      "name": "activeSubscribersCount",
      "outputs": [
        {
          "internalType": "uint256",
          "name": "",
          "type": "uint256"
        }
      ],
      "stateMutability": "view",
      "type": "function"
    },
    {
      "inputs": [
        {
          "internalType": "string",
          "name": "_strategyUid",
          "type": "string"
        },
        {
          "internalType": "uint256",
          "name": "_subscriptionFee",
          "type": "uint256"
        },
        {
          "internalType": "string",
          "name": "_subscriptionPeriod",
          "type": "string"
        },
        {
          "internalType": "uint256",
          "name": "_roi",
          "type": "uint256"
        },
        {
          "internalType": "uint256",
          "name": "_profitability",
          "type": "uint256"
        },
        {
          "internalType": "uint256",
          "name": "_risk",
          "type": "uint256"
        }
      ],
      "name": "createStrategy",
      "outputs": [],
      "stateMutability": "nonpayable",
      "type": "function"
    },
    {
      "inputs": [
        {
          "internalType": "uint256",
          "name": "_id",
          "type": "uint256"
        }
      ],
      "name": "getActiveSubscribersCount",
      "outputs": [
        {
          "internalType": "uint256",
          "name": "",
          "type": "uint256"
        }
      ],
      "stateMutability": "view",
      "type": "function"
    },
    {
      "inputs": [],
      "name": "getAllStrategies",
      "outputs": [
        {
          "components": [
            {
              "internalType": "uint256",
              "name": "id",
              "type": "uint256"
            },
            {
              "internalType": "address",
              "name": "provider",
              "type": "address"
            },
            {
              "internalType": "uint256",
              "name": "subscriptionFee",
              "type": "uint256"
            },
            {
              "internalType": "string",
              "name": "subscriptionPeriod",
              "type": "string"
            },
            {
              "internalType": "string",
              "name": "strategyUid",
              "type": "string"
            },
            {
              "internalType": "uint256",
              "name": "roi",
              "type": "uint256"
            },
            {
              "internalType": "uint256",
              "name": "profitability",
              "type": "uint256"
            },
            {
              "internalType": "uint256",
              "name": "risk",
              "type": "uint256"
            },
            {
              "internalType": "bool",
              "name": "active",
              "type": "bool"
            }
          ],
          "internalType": "struct TradingAlgoAVS.Strategy[]",
          "name": "",
          "type": "tuple[]"
        }
      ],
      "stateMutability": "view",
      "type": "function"
    },
    {
      "inputs": [
        {
          "internalType": "uint256",
          "name": "_id",
          "type": "uint256"
        }
      ],
      "name": "getStrategy",
      "outputs": [
        {
          "components": [
            {
              "internalType": "uint256",
              "name": "id",
              "type": "uint256"
            },
            {
              "internalType": "address",
              "name": "provider",
              "type": "address"
            },
            {
              "internalType": "uint256",
              "name": "subscriptionFee",
              "type": "uint256"
            },
            {
              "internalType": "string",
              "name": "subscriptionPeriod",
              "type": "string"
            },
            {
              "internalType": "string",
              "name": "strategyUid",
              "type": "string"
            },
            {
              "internalType": "uint256",
              "name": "roi",
              "type": "uint256"
            },
            {
              "internalType": "uint256",
              "name": "profitability",
              "type": "uint256"
            },
            {
              "internalType": "uint256",
              "name": "risk",
              "type": "uint256"
            },
            {
              "internalType": "bool",
              "name": "active",
              "type": "bool"
            }
          ],
          "internalType": "struct TradingAlgoAVS.Strategy",
          "name": "",
          "type": "tuple"
        }
      ],
      "stateMutability": "view",
      "type": "function"
    },
    {
      "inputs": [
        {
          "internalType": "uint256",
          "name": "_id",
          "type": "uint256"
        }
      ],
      "name": "getTotalSubscribersCount",
      "outputs": [
        {
          "internalType": "uint256",
          "name": "",
          "type": "uint256"
        }
      ],
      "stateMutability": "view",
      "type": "function"
    },
    {
      "inputs": [
        {
          "internalType": "address",
          "name": "_subscriber",
          "type": "address"
        }
      ],
      "name": "getUserSubscriptions",
      "outputs": [
        {
          "internalType": "uint256[]",
          "name": "",
          "type": "uint256[]"
        }
      ],
      "stateMutability": "view",
      "type": "function"
    },
    {
      "inputs": [
        {
          "internalType": "address",
          "name": "_subscriber",
          "type": "address"
        },
        {
          "internalType": "uint256",
          "name": "_id",
          "type": "uint256"
        }
      ],
      "name": "isSubscribed",
      "outputs": [
        {
          "internalType": "bool",
          "name": "",
          "type": "bool"
        }
      ],
      "stateMutability": "view",
      "type": "function"
    },
    {
      "inputs": [
        {
          "internalType": "uint256",
          "name": "",
          "type": "uint256"
        }
      ],
      "name": "strategies",
      "outputs": [
        {
          "internalType": "uint256",
          "name": "id",
          "type": "uint256"
        },
        {
          "internalType": "address",
          "name": "provider",
          "type": "address"
        },
        {
          "internalType": "uint256",
          "name": "subscriptionFee",
          "type": "uint256"
        },
        {
          "internalType": "string",
          "name": "subscriptionPeriod",
          "type": "string"
        },
        {
          "internalType": "string",
          "name": "strategyUid",
          "type": "string"
        },
        {
          "internalType": "uint256",
          "name": "roi",
          "type": "uint256"
        },
        {
          "internalType": "uint256",
          "name": "profitability",
          "type": "uint256"
        },
        {
          "internalType": "uint256",
          "name": "risk",
          "type": "uint256"
        },
        {
          "internalType": "bool",
          "name": "active",
          "type": "bool"
        }
      ],
      "stateMutability": "view",
      "type": "function"
    },
    {
      "inputs": [
        {
          "internalType": "uint256",
          "name": "_id",
          "type": "uint256"
        }
      ],
      "name": "subscribeStrategy",
      "outputs": [],
      "stateMutability": "payable",
      "type": "function"
    },
    {
      "inputs": [
        {
          "internalType": "address",
          "name": "",
          "type": "address"
        },
        {
          "internalType": "uint256",
          "name": "",
          "type": "uint256"
        }
      ],
      "name": "subscriptions",
      "outputs": [
        {
          "internalType": "uint256",
          "name": "strategyId",
          "type": "uint256"
        },
        {
          "internalType": "address",
          "name": "subscriber",
          "type": "address"
        },
        {
          "internalType": "uint256",
          "name": "startTime",
          "type": "uint256"
        },
        {
          "internalType": "uint256",
          "name": "endTime",
          "type": "uint256"
        },
        {
          "internalType": "bool",
          "name": "active",
          "type": "bool"
        }
      ],
      "stateMutability": "view",
      "type": "function"
    },
    {
      "inputs": [
        {
          "internalType": "uint256",
          "name": "",
          "type": "uint256"
        }
      ],
      "name": "totalSubscribersCount",
      "outputs": [
        {
          "internalType": "uint256",
          "name": "",
          "type": "uint256"
        }
      ],
      "stateMutability": "view",
      "type": "function"
    },
    {
      "inputs": [
        {
          "internalType": "uint256",
          "name": "_id",
          "type": "uint256"
        }
      ],
      "name": "unsubscribeStrategy",
      "outputs": [],
      "stateMutability": "nonpayable",
      "type": "function"
    },
    {
      "inputs": [
        {
          "internalType": "address",
          "name": "",
          "type": "address"
        },
        {
          "internalType": "uint256",
          "name": "",
          "type": "uint256"
        }
      ],
      "name": "userSubscriptions",
      "outputs": [
        {
          "internalType": "uint256",
          "name": "",
          "type": "uint256"
        }
      ],
      "stateMutability": "view",
      "type": "function"
    }
  ],
  "bytecode": "0x6080604052348015600f57600080fd5b50612b4e8061001f6000396000f3fe6080604052600436106100dd5760003560e01c8063acfea7701161007f578063cfc0cc3411610059578063cfc0cc34146102ed578063d574ea3d1461032a578063e14280e61461036f578063e9719852146103ac576100dd565b8063acfea77014610269578063c3b2886414610285578063c95d6edc146102b0576100dd565b8063482c6934116100bb578063482c6934146101855780634c6c1abc146101c2578063623da3d1146101eb57806399c238111461022c576100dd565b806313cf6211146100e25780632e6ca5881461010b57806336867ae614610148575b600080fd5b3480156100ee57600080fd5b50610109600480360381019061010491906119b7565b6103e9565b005b34801561011757600080fd5b50610132600480360381019061012d9190611ada565b61074d565b60405161013f9190611bc5565b60405180910390f35b34801561015457600080fd5b5061016f600480360381019061016a9190611be7565b6107e4565b60405161017c9190611c42565b60405180910390f35b34801561019157600080fd5b506101ac60048036038101906101a79190611c5d565b61084f565b6040516101b99190611c99565b60405180910390f35b3480156101ce57600080fd5b506101e960048036038101906101e49190611c5d565b610867565b005b3480156101f757600080fd5b50610212600480360381019061020d9190611be7565b6109e3565b604051610223959493929190611cc3565b60405180910390f35b34801561023857600080fd5b50610253600480360381019061024e9190611c5d565b610a53565b6040516102609190611c99565b60405180910390f35b610283600480360381019061027e9190611c5d565b610a6b565b005b34801561029157600080fd5b5061029a610fcf565b6040516102a79190611f41565b60405180910390f35b3480156102bc57600080fd5b506102d760048036038101906102d29190611be7565b611250565b6040516102e49190611c99565b60405180910390f35b3480156102f957600080fd5b50610314600480360381019061030f9190611c5d565b611281565b604051610321919061202f565b60405180910390f35b34801561033657600080fd5b50610351600480360381019061034c9190611c5d565b611476565b6040516103669998979695949392919061209b565b60405180910390f35b34801561037b57600080fd5b5061039660048036038101906103919190611c5d565b611601565b6040516103a39190611c99565b60405180910390f35b3480156103b857600080fd5b506103d360048036038101906103ce9190611c5d565b61161e565b6040516103e09190611c99565b60405180910390f35b6104286040518060400160405280601e81526020017f4372656174696e672073747261746567792077697468205549443a20257300008152508761163b565b6104676040518060400160405280601281526020017f53656e64657220416464726573733a2025730000000000000000000000000000815250336116d7565b6040516020016104769061218d565b604051602081830303815290604052805190602001208460405160200161049d91906121d3565b60405160208183030381529060405280519060200120148061050857506040516020016104c990612236565b60405160208183030381529060405280519060200120846040516020016104f091906121d3565b60405160208183030381529060405280519060200120145b8061055c575060405160200161051d90612297565b604051602081830303815290604052805190602001208460405160200161054491906121d3565b60405160208183030381529060405280519060200120145b61059b576040517f08c379a0000000000000000000000000000000000000000000000000000000008152600401610592906122f8565b60405180910390fd5b60405180610120016040528060005481526020013373ffffffffffffffffffffffffffffffffffffffff1681526020018681526020018581526020018781526020018481526020018381526020018281526020016001151581525060016000805481526020019081526020016000206000820151816000015560208201518160010160006101000a81548173ffffffffffffffffffffffffffffffffffffffff021916908373ffffffffffffffffffffffffffffffffffffffff16021790555060408201518160020155606082015181600301908161067a9190612524565b5060808201518160040190816106909190612524565b5060a0820151816005015560c0820151816006015560e082015181600701556101008201518160080160006101000a81548160ff0219169083151502179055509050503373ffffffffffffffffffffffffffffffffffffffff166000547f4d33db09ba257b965787875294cb3ccc93f4e0cac7ddc5d287960399425ab5e187878a888888604051610726969594939291906125f6565b60405180910390a360008081548092919061074090612694565b9190505550505050505050565b6060600360008373ffffffffffffffffffffffffffffffffffffffff1673ffffffffffffffffffffffffffffffffffffffff1681526020019081526020016000208054806020026020016040519081016040528092919081815260200182805480156107d857602002820191906000526020600020905b8154815260200190600101908083116107c4575b50505050509050919050565b6000600260008473ffffffffffffffffffffffffffffffffffffffff1673ffffffffffffffffffffffffffffffffffffffff168152602001908152602001600020600083815260200190815260200160002060040160009054906101000a900460ff16905092915050565b60046020528060005260406000206000915090505481565b600260003373ffffffffffffffffffffffffffffffffffffffff1673ffffffffffffffffffffffffffffffffffffffff168152602001908152602001600020600082815260200190815260200160002060040160009054906101000a900460ff16610907576040517f08c379a00000000000000000000000000000000000000000000000000000000081526004016108fe90612728565b60405180910390fd5b6000600260003373ffffffffffffffffffffffffffffffffffffffff1673ffffffffffffffffffffffffffffffffffffffff168152602001908152602001600020600083815260200190815260200160002060040160006101000a81548160ff02191690831515021790555060046000828152602001908152602001600020600081548092919061099790612748565b91905055503373ffffffffffffffffffffffffffffffffffffffff16817f435935bd93200402ce9854ea771f59cbf17f38dff88a3f2e3a2c10708125049960405160405180910390a350565b6002602052816000526040600020602052806000526040600020600091509150508060000154908060010160009054906101000a900473ffffffffffffffffffffffffffffffffffffffff16908060020154908060030154908060040160009054906101000a900460ff16905085565b60056020528060005260406000206000915090505481565b60006001600083815260200190815260200160002090508060080160009054906101000a900460ff16610ad3576040517f08c379a0000000000000000000000000000000000000000000000000000000008152600401610aca906127bd565b60405180910390fd5b80600201543414610b19576040517f08c379a0000000000000000000000000000000000000000000000000000000008152600401610b1090612829565b60405180910390fd5b60001515600260003373ffffffffffffffffffffffffffffffffffffffff1673ffffffffffffffffffffffffffffffffffffffff168152602001908152602001600020600084815260200190815260200160002060040160009054906101000a900460ff16151514610bc0576040517f08c379a0000000000000000000000000000000000000000000000000000000008152600401610bb790612895565b60405180910390fd5b6000604051602001610bd19061218d565b6040516020818303038152906040528051906020012082600301604051602001610bfb9190612938565b6040516020818303038152906040528051906020012003610c2157620151809050610cdd565b604051602001610c3090612236565b6040516020818303038152906040528051906020012082600301604051602001610c5a9190612938565b6040516020818303038152906040528051906020012003610c805762093a809050610cdc565b604051602001610c8f90612297565b6040516020818303038152906040528051906020012082600301604051602001610cb99190612938565b6040516020818303038152906040528051906020012003610cdb5762278d0090505b5b5b600042905060008282610cf0919061294f565b90506040518060a001604052808681526020013373ffffffffffffffffffffffffffffffffffffffff16815260200183815260200182815260200160011515815250600260003373ffffffffffffffffffffffffffffffffffffffff1673ffffffffffffffffffffffffffffffffffffffff16815260200190815260200160002060008781526020019081526020016000206000820151816000015560208201518160010160006101000a81548173ffffffffffffffffffffffffffffffffffffffff021916908373ffffffffffffffffffffffffffffffffffffffff160217905550604082015181600201556060820151816003015560808201518160040160006101000a81548160ff021916908315150217905550905050600360003373ffffffffffffffffffffffffffffffffffffffff1673ffffffffffffffffffffffffffffffffffffffff168152602001908152602001600020859080600181540180825580915050600190039060005260206000200160009091909190915055600460008681526020019081526020016000206000815480929190610e9490612694565b9190505550600560008681526020019081526020016000206000815480929190610ebd90612694565b91905055508360010160009054906101000a900473ffffffffffffffffffffffffffffffffffffffff1673ffffffffffffffffffffffffffffffffffffffff166108fc349081150290604051600060405180830381858888f19350505050158015610f2c573d6000803e3d6000fd5b50610f6c6040518060400160405280601681526020017f5375627363726962657220416464726573733a20257300000000000000000000815250336116d7565b3373ffffffffffffffffffffffffffffffffffffffff16857f5e264949ccc2e870973979d6a494bf9d02775c971509da594d1920e59159bd308660020154876003018686604051610fc09493929190612a07565b60405180910390a35050505050565b60606000805467ffffffffffffffff811115610fee57610fed611856565b5b60405190808252806020026020018201604052801561102757816020015b6110146117b9565b81526020019060019003908161100c5790505b50905060005b600054811015611248576001600082815260200190815260200160002060405180610120016040529081600082015481526020016001820160009054906101000a900473ffffffffffffffffffffffffffffffffffffffff1673ffffffffffffffffffffffffffffffffffffffff1673ffffffffffffffffffffffffffffffffffffffff168152602001600282015481526020016003820180546110d090612347565b80601f01602080910402602001604051908101604052809291908181526020018280546110fc90612347565b80156111495780601f1061111e57610100808354040283529160200191611149565b820191906000526020600020905b81548152906001019060200180831161112c57829003601f168201915b5050505050815260200160048201805461116290612347565b80601f016020809104026020016040519081016040528092919081815260200182805461118e90612347565b80156111db5780601f106111b0576101008083540402835291602001916111db565b820191906000526020600020905b8154815290600101906020018083116111be57829003601f168201915b505050505081526020016005820154815260200160068201548152602001600782015481526020016008820160009054906101000a900460ff1615151515815250508282815181106112305761122f612a53565b5b6020026020010181905250808060010191505061102d565b508091505090565b6003602052816000526040600020818154811061126c57600080fd5b90600052602060002001600091509150505481565b6112896117b9565b6001600083815260200190815260200160002060405180610120016040529081600082015481526020016001820160009054906101000a900473ffffffffffffffffffffffffffffffffffffffff1673ffffffffffffffffffffffffffffffffffffffff1673ffffffffffffffffffffffffffffffffffffffff1681526020016002820154815260200160038201805461132290612347565b80601f016020809104026020016040519081016040528092919081815260200182805461134e90612347565b801561139b5780601f106113705761010080835404028352916020019161139b565b820191906000526020600020905b81548152906001019060200180831161137e57829003601f168201915b505050505081526020016004820180546113b490612347565b80601f01602080910402602001604051908101604052809291908181526020018280546113e090612347565b801561142d5780601f106114025761010080835404028352916020019161142d565b820191906000526020600020905b81548152906001019060200180831161141057829003601f168201915b505050505081526020016005820154815260200160068201548152602001600782015481526020016008820160009054906101000a900460ff1615151515815250509050919050565b60016020528060005260406000206000915090508060000154908060010160009054906101000a900473ffffffffffffffffffffffffffffffffffffffff16908060020154908060030180546114cb90612347565b80601f01602080910402602001604051908101604052809291908181526020018280546114f790612347565b80156115445780601f1061151957610100808354040283529160200191611544565b820191906000526020600020905b81548152906001019060200180831161152757829003601f168201915b50505050509080600401805461155990612347565b80601f016020809104026020016040519081016040528092919081815260200182805461158590612347565b80156115d25780601f106115a7576101008083540402835291602001916115d2565b820191906000526020600020905b8154815290600101906020018083116115b557829003601f168201915b5050505050908060050154908060060154908060070154908060080160009054906101000a900460ff16905089565b600060056000838152602001908152602001600020549050919050565b600060046000838152602001908152602001600020549050919050565b6116d38282604051602401611651929190612a82565b6040516020818303038152906040527f4b5c4277000000000000000000000000000000000000000000000000000000007bffffffffffffffffffffffffffffffffffffffffffffffffffffffff19166020820180517bffffffffffffffffffffffffffffffffffffffffffffffffffffffff8381831617835250505050611773565b5050565b61176f82826040516024016116ed929190612ab9565b6040516020818303038152906040527f319af333000000000000000000000000000000000000000000000000000000007bffffffffffffffffffffffffffffffffffffffffffffffffffffffff19166020820180517bffffffffffffffffffffffffffffffffffffffffffffffffffffffff8381831617835250505050611773565b5050565b61178a8161178261178d6117ae565b63ffffffff16565b50565b60006a636f6e736f6c652e6c6f679050600080835160208501845afa505050565b61181d819050919050565b60405180610120016040528060008152602001600073ffffffffffffffffffffffffffffffffffffffff1681526020016000815260200160608152602001606081526020016000815260200160008152602001600081526020016000151581525090565b611825612ae9565b565b6000604051905090565b600080fd5b600080fd5b600080fd5b600080fd5b6000601f19601f8301169050919050565b7f4e487b7100000000000000000000000000000000000000000000000000000000600052604160045260246000fd5b61188e82611845565b810181811067ffffffffffffffff821117156118ad576118ac611856565b5b80604052505050565b60006118c0611827565b90506118cc8282611885565b919050565b600067ffffffffffffffff8211156118ec576118eb611856565b5b6118f582611845565b9050602081019050919050565b82818337600083830152505050565b600061192461191f846118d1565b6118b6565b9050828152602081018484840111156119405761193f611840565b5b61194b848285611902565b509392505050565b600082601f8301126119685761196761183b565b5b8135611978848260208601611911565b91505092915050565b6000819050919050565b61199481611981565b811461199f57600080fd5b50565b6000813590506119b18161198b565b92915050565b60008060008060008060c087890312156119d4576119d3611831565b5b600087013567ffffffffffffffff8111156119f2576119f1611836565b5b6119fe89828a01611953565b9650506020611a0f89828a016119a2565b955050604087013567ffffffffffffffff811115611a3057611a2f611836565b5b611a3c89828a01611953565b9450506060611a4d89828a016119a2565b9350506080611a5e89828a016119a2565b92505060a0611a6f89828a016119a2565b9150509295509295509295565b600073ffffffffffffffffffffffffffffffffffffffff82169050919050565b6000611aa782611a7c565b9050919050565b611ab781611a9c565b8114611ac257600080fd5b50565b600081359050611ad481611aae565b92915050565b600060208284031215611af057611aef611831565b5b6000611afe84828501611ac5565b91505092915050565b600081519050919050565b600082825260208201905092915050565b6000819050602082019050919050565b611b3c81611981565b82525050565b6000611b4e8383611b33565b60208301905092915050565b6000602082019050919050565b6000611b7282611b07565b611b7c8185611b12565b9350611b8783611b23565b8060005b83811015611bb8578151611b9f8882611b42565b9750611baa83611b5a565b925050600181019050611b8b565b5085935050505092915050565b60006020820190508181036000830152611bdf8184611b67565b905092915050565b60008060408385031215611bfe57611bfd611831565b5b6000611c0c85828601611ac5565b9250506020611c1d858286016119a2565b9150509250929050565b60008115159050919050565b611c3c81611c27565b82525050565b6000602082019050611c576000830184611c33565b92915050565b600060208284031215611c7357611c72611831565b5b6000611c81848285016119a2565b91505092915050565b611c9381611981565b82525050565b6000602082019050611cae6000830184611c8a565b92915050565b611cbd81611a9c565b82525050565b600060a082019050611cd86000830188611c8a565b611ce56020830187611cb4565b611cf26040830186611c8a565b611cff6060830185611c8a565b611d0c6080830184611c33565b9695505050505050565b600081519050919050565b600082825260208201905092915050565b6000819050602082019050919050565b611d4b81611a9c565b82525050565b600081519050919050565b600082825260208201905092915050565b60005b83811015611d8b578082015181840152602081019050611d70565b60008484015250505050565b6000611da282611d51565b611dac8185611d5c565b9350611dbc818560208601611d6d565b611dc581611845565b840191505092915050565b611dd981611c27565b82525050565b600061012083016000830151611df86000860182611b33565b506020830151611e0b6020860182611d42565b506040830151611e1e6040860182611b33565b5060608301518482036060860152611e368282611d97565b91505060808301518482036080860152611e508282611d97565b91505060a0830151611e6560a0860182611b33565b5060c0830151611e7860c0860182611b33565b5060e0830151611e8b60e0860182611b33565b50610100830151611ea0610100860182611dd0565b508091505092915050565b6000611eb78383611ddf565b905092915050565b6000602082019050919050565b6000611ed782611d16565b611ee18185611d21565b935083602082028501611ef385611d32565b8060005b85811015611f2f5784840389528151611f108582611eab565b9450611f1b83611ebf565b925060208a01995050600181019050611ef7565b50829750879550505050505092915050565b60006020820190508181036000830152611f5b8184611ecc565b905092915050565b600061012083016000830151611f7c6000860182611b33565b506020830151611f8f6020860182611d42565b506040830151611fa26040860182611b33565b5060608301518482036060860152611fba8282611d97565b91505060808301518482036080860152611fd48282611d97565b91505060a0830151611fe960a0860182611b33565b5060c0830151611ffc60c0860182611b33565b5060e083015161200f60e0860182611b33565b50610100830151612024610100860182611dd0565b508091505092915050565b600060208201905081810360008301526120498184611f63565b905092915050565b600082825260208201905092915050565b600061206d82611d51565b6120778185612051565b9350612087818560208601611d6d565b61209081611845565b840191505092915050565b6000610120820190506120b1600083018c611c8a565b6120be602083018b611cb4565b6120cb604083018a611c8a565b81810360608301526120dd8189612062565b905081810360808301526120f18188612062565b905061210060a0830187611c8a565b61210d60c0830186611c8a565b61211a60e0830185611c8a565b612128610100830184611c33565b9a9950505050505050505050565b600081905092915050565b7f6461790000000000000000000000000000000000000000000000000000000000600082015250565b6000612177600383612136565b915061218282612141565b600382019050919050565b60006121988261216a565b9150819050919050565b60006121ad82611d51565b6121b78185612136565b93506121c7818560208601611d6d565b80840191505092915050565b60006121df82846121a2565b915081905092915050565b7f7765656b00000000000000000000000000000000000000000000000000000000600082015250565b6000612220600483612136565b915061222b826121ea565b600482019050919050565b600061224182612213565b9150819050919050565b7f6d6f6e7468000000000000000000000000000000000000000000000000000000600082015250565b6000612281600583612136565b915061228c8261224b565b600582019050919050565b60006122a282612274565b9150819050919050565b7f496e76616c696420737562736372697074696f6e20706572696f640000000000600082015250565b60006122e2601b83612051565b91506122ed826122ac565b602082019050919050565b60006020820190508181036000830152612311816122d5565b9050919050565b7f4e487b7100000000000000000000000000000000000000000000000000000000600052602260045260246000fd5b6000600282049050600182168061235f57607f821691505b60208210810361237257612371612318565b5b50919050565b60008190508160005260206000209050919050565b60006020601f8301049050919050565b600082821b905092915050565b6000600883026123da7fffffffffffffffffffffffffffffffffffffffffffffffffffffffffffffffff8261239d565b6123e4868361239d565b95508019841693508086168417925050509392505050565b6000819050919050565b600061242161241c61241784611981565b6123fc565b611981565b9050919050565b6000819050919050565b61243b83612406565b61244f61244782612428565b8484546123aa565b825550505050565b600090565b612464612457565b61246f818484612432565b505050565b5b818110156124935761248860008261245c565b600181019050612475565b5050565b601f8211156124d8576124a981612378565b6124b28461238d565b810160208510156124c1578190505b6124d56124cd8561238d565b830182612474565b50505b505050565b600082821c905092915050565b60006124fb600019846008026124dd565b1980831691505092915050565b600061251483836124ea565b9150826002028217905092915050565b61252d82611d51565b67ffffffffffffffff81111561254657612545611856565b5b6125508254612347565b61255b828285612497565b600060209050601f83116001811461258e576000841561257c578287015190505b6125868582612508565b8655506125ee565b601f19841661259c86612378565b60005b828110156125c45784890151825560018201915060208501945060208101905061259f565b868310156125e157848901516125dd601f8916826124ea565b8355505b6001600288020188555050505b505050505050565b600060c08201905061260b6000830189611c8a565b818103602083015261261d8188612062565b905081810360408301526126318187612062565b90506126406060830186611c8a565b61264d6080830185611c8a565b61265a60a0830184611c8a565b979650505050505050565b7f4e487b7100000000000000000000000000000000000000000000000000000000600052601160045260246000fd5b600061269f82611981565b91507fffffffffffffffffffffffffffffffffffffffffffffffffffffffffffffffff82036126d1576126d0612665565b5b600182019050919050565b7f4e6f742073756273637269626564000000000000000000000000000000000000600082015250565b6000612712600e83612051565b915061271d826126dc565b602082019050919050565b6000602082019050818103600083015261274181612705565b9050919050565b600061275382611981565b91506000820361276657612765612665565b5b600182039050919050565b7f5374726174656779206973206e6f742061637469766500000000000000000000600082015250565b60006127a7601683612051565b91506127b282612771565b602082019050919050565b600060208201905081810360008301526127d68161279a565b9050919050565b7f496e636f727265637420737562736372697074696f6e20666565000000000000600082015250565b6000612813601a83612051565b915061281e826127dd565b602082019050919050565b6000602082019050818103600083015261284281612806565b9050919050565b7f416c726561647920737562736372696265640000000000000000000000000000600082015250565b600061287f601283612051565b915061288a82612849565b602082019050919050565b600060208201905081810360008301526128ae81612872565b9050919050565b600081546128c281612347565b6128cc8186612136565b945060018216600081146128e757600181146128fc5761292f565b60ff198316865281151582028601935061292f565b61290585612378565b60005b8381101561292757815481890152600182019150602081019050612908565b838801955050505b50505092915050565b600061294482846128b5565b915081905092915050565b600061295a82611981565b915061296583611981565b925082820190508082111561297d5761297c612665565b5b92915050565b6000815461299081612347565b61299a8186612051565b945060018216600081146129b557600181146129cb576129fe565b60ff1983168652811515602002860193506129fe565b6129d485612378565b60005b838110156129f6578154818901526001820191506020810190506129d7565b808801955050505b50505092915050565b6000608082019050612a1c6000830187611c8a565b8181036020830152612a2e8186612983565b9050612a3d6040830185611c8a565b612a4a6060830184611c8a565b95945050505050565b7f4e487b7100000000000000000000000000000000000000000000000000000000600052603260045260246000fd5b60006040820190508181036000830152612a9c8185612062565b90508181036020830152612ab08184612062565b90509392505050565b60006040820190508181036000830152612ad38185612062565b9050612ae26020830184611cb4565b9392505050565b7f4e487b7100000000000000000000000000000000000000000000000000000000600052605160045260246000fdfea26469706673582212204a65c21eca81fa310ca5bcfed5f9c2eb7e07bee075399ab543a8e4434c8c934f64736f6c634300081c0033",
  "linkReferences": {},
  "deployedLinkReferences": {}
}